{
  "_format": "hh-sol-artifact-1",
  "contractName": "DexTokenManager",
  "sourceName": "contracts/DexTokenManager.sol",
  "abi": [
    {
      "inputs": [],
      "stateMutability": "nonpayable",
      "type": "constructor"
    },
    {
      "anonymous": false,
      "inputs": [
        {
          "indexed": false,
          "internalType": "uint8",
          "name": "version",
          "type": "uint8"
        }
      ],
      "name": "Initialized",
      "type": "event"
    },
    {
      "anonymous": false,
      "inputs": [
        {
          "indexed": false,
          "internalType": "bytes32",
          "name": "poolId",
          "type": "bytes32"
        },
        {
          "indexed": false,
          "internalType": "uint256",
          "name": "amount",
          "type": "uint256"
        },
        {
          "indexed": false,
          "internalType": "address",
          "name": "token",
          "type": "address"
        },
        {
          "indexed": false,
          "internalType": "enum PoolBalanceOpKind",
          "name": "kind",
          "type": "uint8"
        }
      ],
      "name": "LogBalanceManagementOp",
      "type": "event"
    },
    {
      "anonymous": false,
      "inputs": [
        {
          "indexed": false,
          "internalType": "address",
          "name": "token",
          "type": "address"
        },
        {
          "indexed": false,
          "internalType": "uint256",
          "name": "amount",
          "type": "uint256"
        },
        {
          "indexed": false,
          "internalType": "address",
          "name": "who",
          "type": "address"
        },
        {
          "indexed": false,
          "internalType": "address",
          "name": "to",
          "type": "address"
        }
      ],
      "name": "LogFundsRescued",
      "type": "event"
    },
    {
      "anonymous": false,
      "inputs": [
        {
          "indexed": true,
          "internalType": "bytes32",
          "name": "role",
          "type": "bytes32"
        },
        {
          "indexed": true,
          "internalType": "bytes32",
          "name": "previousAdminRole",
          "type": "bytes32"
        },
        {
          "indexed": true,
          "internalType": "bytes32",
          "name": "newAdminRole",
          "type": "bytes32"
        }
      ],
      "name": "RoleAdminChanged",
      "type": "event"
    },
    {
      "anonymous": false,
      "inputs": [
        {
          "indexed": true,
          "internalType": "bytes32",
          "name": "role",
          "type": "bytes32"
        },
        {
          "indexed": true,
          "internalType": "address",
          "name": "account",
          "type": "address"
        },
        {
          "indexed": true,
          "internalType": "address",
          "name": "sender",
          "type": "address"
        }
      ],
      "name": "RoleGranted",
      "type": "event"
    },
    {
      "anonymous": false,
      "inputs": [
        {
          "indexed": true,
          "internalType": "bytes32",
          "name": "role",
          "type": "bytes32"
        },
        {
          "indexed": true,
          "internalType": "address",
          "name": "account",
          "type": "address"
        },
        {
          "indexed": true,
          "internalType": "address",
          "name": "sender",
          "type": "address"
        }
      ],
      "name": "RoleRevoked",
      "type": "event"
    },
    {
      "inputs": [],
      "name": "DEFAULT_ADMIN_ROLE",
      "outputs": [
        {
          "internalType": "bytes32",
          "name": "",
          "type": "bytes32"
        }
      ],
      "stateMutability": "view",
      "type": "function"
    },
    {
      "inputs": [],
      "name": "POOL_MANAGEMENT",
      "outputs": [
        {
          "internalType": "bytes32",
          "name": "",
          "type": "bytes32"
        }
      ],
      "stateMutability": "view",
      "type": "function"
    },
    {
      "inputs": [
        {
          "internalType": "bytes32",
          "name": "poolId",
          "type": "bytes32"
        }
      ],
      "name": "addPool",
      "outputs": [],
      "stateMutability": "nonpayable",
      "type": "function"
    },
    {
      "inputs": [
        {
          "internalType": "bytes32",
          "name": "poolId",
          "type": "bytes32"
        }
      ],
      "name": "getAllTokenInfoForPool",
      "outputs": [
        {
          "components": [
            {
              "internalType": "uint256",
              "name": "cashBalance",
              "type": "uint256"
            },
            {
              "internalType": "uint256",
              "name": "managedBalance",
              "type": "uint256"
            },
            {
              "internalType": "uint256",
              "name": "totalBalance",
              "type": "uint256"
            },
            {
              "internalType": "uint256",
              "name": "lastChangeBlock",
              "type": "uint256"
            },
            {
              "internalType": "address",
              "name": "assetManager",
              "type": "address"
            }
          ],
          "internalType": "struct DexTokenManager.TokenBalanceInfo[]",
          "name": "tokenInfoArray",
          "type": "tuple[]"
        }
      ],
      "stateMutability": "view",
      "type": "function"
    },
    {
      "inputs": [
        {
          "internalType": "bytes32",
          "name": "role",
          "type": "bytes32"
        }
      ],
      "name": "getRoleAdmin",
      "outputs": [
        {
          "internalType": "bytes32",
          "name": "",
          "type": "bytes32"
        }
      ],
      "stateMutability": "view",
      "type": "function"
    },
    {
      "inputs": [
        {
          "internalType": "bytes32",
          "name": "poolId",
          "type": "bytes32"
        },
        {
          "internalType": "address",
          "name": "token",
          "type": "address"
        }
      ],
      "name": "getTokenInfoForPool",
      "outputs": [
        {
          "components": [
            {
              "internalType": "uint256",
              "name": "cashBalance",
              "type": "uint256"
            },
            {
              "internalType": "uint256",
              "name": "managedBalance",
              "type": "uint256"
            },
            {
              "internalType": "uint256",
              "name": "totalBalance",
              "type": "uint256"
            },
            {
              "internalType": "uint256",
              "name": "lastChangeBlock",
              "type": "uint256"
            },
            {
              "internalType": "address",
              "name": "assetManager",
              "type": "address"
            }
          ],
          "internalType": "struct DexTokenManager.TokenBalanceInfo",
          "name": "tokenInfo",
          "type": "tuple"
        }
      ],
      "stateMutability": "view",
      "type": "function"
    },
    {
      "inputs": [
        {
          "internalType": "bytes32",
          "name": "role",
          "type": "bytes32"
        },
        {
          "internalType": "address",
          "name": "account",
          "type": "address"
        }
      ],
      "name": "grantRole",
      "outputs": [],
      "stateMutability": "nonpayable",
      "type": "function"
    },
    {
      "inputs": [
        {
          "internalType": "bytes32",
          "name": "role",
          "type": "bytes32"
        },
        {
          "internalType": "address",
          "name": "account",
          "type": "address"
        }
      ],
      "name": "hasRole",
      "outputs": [
        {
          "internalType": "bool",
          "name": "",
          "type": "bool"
        }
      ],
      "stateMutability": "view",
      "type": "function"
    },
    {
      "inputs": [
        {
          "internalType": "address",
          "name": "vault",
          "type": "address"
        },
        {
          "internalType": "address",
          "name": "multisig",
          "type": "address"
        }
      ],
      "name": "initialize",
      "outputs": [],
      "stateMutability": "nonpayable",
      "type": "function"
    },
    {
      "inputs": [
        {
          "internalType": "bytes32",
          "name": "poolId",
          "type": "bytes32"
        }
      ],
      "name": "isPoolAdded",
      "outputs": [
        {
          "internalType": "bool",
          "name": "",
          "type": "bool"
        }
      ],
      "stateMutability": "view",
      "type": "function"
    },
    {
      "inputs": [
        {
          "internalType": "bytes32",
          "name": "role",
          "type": "bytes32"
        },
        {
          "internalType": "address",
          "name": "account",
          "type": "address"
        }
      ],
      "name": "renounceRole",
      "outputs": [],
      "stateMutability": "nonpayable",
      "type": "function"
    },
    {
      "inputs": [
        {
          "internalType": "bytes32",
          "name": "role",
          "type": "bytes32"
        },
        {
          "internalType": "address",
          "name": "account",
          "type": "address"
        }
      ],
      "name": "revokeRole",
      "outputs": [],
      "stateMutability": "nonpayable",
      "type": "function"
    },
    {
      "inputs": [
        {
          "internalType": "bytes4",
          "name": "interfaceId",
          "type": "bytes4"
        }
      ],
      "name": "supportsInterface",
      "outputs": [
        {
          "internalType": "bool",
          "name": "",
          "type": "bool"
        }
      ],
      "stateMutability": "view",
      "type": "function"
    },
    {
      "inputs": [
        {
          "internalType": "bytes32",
          "name": "poolId",
          "type": "bytes32"
        },
        {
          "internalType": "address",
          "name": "token",
          "type": "address"
        },
        {
          "internalType": "uint256",
          "name": "amount",
          "type": "uint256"
        }
      ],
      "name": "withdrawTokenFromPool",
      "outputs": [],
      "stateMutability": "nonpayable",
      "type": "function"
    }
  ],
  "bytecode": "0x60806040523480156200001157600080fd5b506200001c62000022565b62000152565b6200002e60ff62000031565b50565b60008054610100900460ff1615620000ca578160ff1660011480156200006a575062000068306200014360201b62000b7b1760201c565b155b620000c25760405162461bcd60e51b815260206004820152602e60248201526000805160206200193183398151915260448201526d191e481a5b9a5d1a585b1a5e995960921b60648201526084015b60405180910390fd5b506000919050565b60005460ff808416911610620001295760405162461bcd60e51b815260206004820152602e60248201526000805160206200193183398151915260448201526d191e481a5b9a5d1a585b1a5e995960921b6064820152608401620000b9565b506000805460ff191660ff92909216919091179055600190565b6001600160a01b03163b151590565b6117cf80620001626000396000f3fe608060405234801561001057600080fd5b50600436106100ea5760003560e01c806382c196171161008c578063a217fddf11610066578063a217fddf146101ff578063a6bb8b5114610207578063d0bd5ee214610227578063d547741f1461023c57600080fd5b806382c19617146101b95780638a0033fc146101d957806391d14854146101ec57600080fd5b80632f2ff15d116100c85780632f2ff15d1461015d57806336568abe14610170578063485cc95514610183578063559e45431461019657600080fd5b806301ffc9a7146100ef578063248a9ca3146101175780632957d19b14610148575b600080fd5b6101026100fd366004611355565b61024f565b60405190151581526020015b60405180910390f35b61013a6101253660046112e2565b60009081526065602052604090206001015490565b60405190815260200161010e565b61015b61015636600461131e565b610286565b005b61015b61016b3660046112fa565b61039e565b61015b61017e3660046112fa565b6103c8565b61015b6101913660046111db565b610446565b6101026101a43660046112e2565b60009081526098602052604090205460ff1690565b6101cc6101c73660046112fa565b6105a1565b60405161010e919061160c565b61015b6101e73660046112e2565b6106c0565b6101026101fa3660046112fa565b61096f565b61013a600081565b61021a6102153660046112e2565b61099a565b60405161010e91906114bb565b61013a60008051602061177a83398151915281565b61015b61024a3660046112fa565b610b56565b60006001600160e01b03198216637965db0b60e01b148061028057506301ffc9a760e01b6001600160e01b03198316145b92915050565b82806102ad5760405162461bcd60e51b81526004016102a4906115e8565b60405180910390fd5b60008181526098602052604090205460ff166102db5760405162461bcd60e51b81526004016102a49061156d565b60008051602061177a8339815191526102f381610b8a565b60975460405163160bf1c960e31b8152600481018790526001600160a01b038681166024830152600092169063b05f8e489060440160806040518083038186803b15801561034057600080fd5b505afa158015610354573d6000803e3d6000fd5b505050506040513d601f19601f82011682018060405250810190610378919061137d565b505050905080841115610389578093505b6103966000878787610b97565b505050505050565b6000828152606560205260409020600101546103b981610b8a565b6103c38383610cfb565b505050565b6001600160a01b03811633146104385760405162461bcd60e51b815260206004820152602f60248201527f416363657373436f6e74726f6c3a2063616e206f6e6c792072656e6f756e636560448201526e103937b632b9903337b91039b2b63360891b60648201526084016102a4565b6104428282610d81565b5050565b60006104526001610de8565b9050801561046a576000805461ff0019166101001790555b6001600160a01b0383166104b05760405162461bcd60e51b815260206004820152600d60248201526c15985d5b1d081b9bdd081cd95d609a1b60448201526064016102a4565b6001600160a01b0382166104f95760405162461bcd60e51b815260206004820152601060248201526f135d5b1d1a5cda59c81b9bdd081cd95d60821b60448201526064016102a4565b610501610e70565b609780546001600160a01b0319166001600160a01b038516179055610527600033610edd565b61053f60008051602061177a83398151915233610edd565b61055760008051602061177a83398151915283610edd565b80156103c3576000805461ff0019169055604051600181527f7f26b83ff96e1f2b6a682f133852f6798a09c465da95921460cefb38474024989060200160405180910390a1505050565b6105a9611134565b82806105c75760405162461bcd60e51b81526004016102a4906115e8565b60008181526098602052604090205460ff166105f55760405162461bcd60e51b81526004016102a49061156d565b60975460405163160bf1c960e31b8152600481018690526001600160a01b038581166024830152600092839283928392169063b05f8e489060440160806040518083038186803b15801561064857600080fd5b505afa15801561065c573d6000803e3d6000fd5b505050506040513d601f19601f82011682018060405250810190610680919061137d565b838a5260208a018390529296509094509250905061069e838561169f565b60408701526001600160a01b0316608086015260608501525091949350505050565b60008051602061177a8339815191526106d881610b8a565b816107175760405162461bcd60e51b815260206004820152600f60248201526e141bdbdb081a59081b9bdd081cd95d608a1b60448201526064016102a4565b60008281526098602052604090205460ff161561076b5760405162461bcd60e51b8152602060048201526012602482015271141bdbdb08185b1c9958591e48185919195960721b60448201526064016102a4565b609754604051631f29a8cd60e31b8152600481018490526000916001600160a01b03169063f94d46689060240160006040518083038186803b1580156107b057600080fd5b505afa1580156107c4573d6000803e3d6000fd5b505050506040513d6000823e601f3d908101601f191682016040526107ec9190810190611213565b5050805190915083903060005b8281101561094e5760975485516000916001600160a01b03169063b05f8e4890879089908690811061083b57634e487b7160e01b600052603260045260246000fd5b60200260200101516040518363ffffffff1660e01b81526004016108729291909182526001600160a01b0316602082015260400190565b60806040518083038186803b15801561088a57600080fd5b505afa15801561089e573d6000803e3d6000fd5b505050506040513d601f19601f820116820180604052508101906108c2919061137d565b9350505050826001600160a01b0316816001600160a01b03161461093b5760405162461bcd60e51b815260206004820152602a60248201527f436f6e7472616374206e6f7420736574206173206173736574206d616e6167656044820152691c88199bdc881c1bdbdb60b21b60648201526084016102a4565b50806109468161171d565b9150506107f9565b5050506000908152609860205260409020805460ff19166001179055505050565b60009182526065602090815260408084206001600160a01b0393909316845291905290205460ff1690565b606081806109ba5760405162461bcd60e51b81526004016102a4906115e8565b60008181526098602052604090205460ff166109e85760405162461bcd60e51b81526004016102a49061156d565b609754604051631f29a8cd60e31b8152600481018590526000916001600160a01b03169063f94d46689060240160006040518083038186803b158015610a2d57600080fd5b505afa158015610a41573d6000803e3d6000fd5b505050506040513d6000823e601f3d908101601f19168201604052610a699190810190611213565b505080519091508067ffffffffffffffff811115610a9757634e487b7160e01b600052604160045260246000fd5b604051908082528060200260200182016040528015610ad057816020015b610abd611134565b815260200190600190039081610ab55790505b50935060005b81811015610b4d57610b0f86848381518110610b0257634e487b7160e01b600052603260045260246000fd5b60200260200101516105a1565b858281518110610b2f57634e487b7160e01b600052603260045260246000fd5b60200260200101819052508080610b459061171d565b915050610ad6565b50505050919050565b600082815260656020526040902060010154610b7181610b8a565b6103c38383610d81565b6001600160a01b03163b151590565b610b948133610ee7565b50565b604080516001808252818301909252600091816020015b604080516080810182526000808252602080830182905292820181905260608201528252600019909201910181610bae57505060408051608081018252600080825260208201819052918101919091526060810184905290915080866002811115610c2957634e487b7160e01b600052602160045260246000fd5b90816002811115610c4a57634e487b7160e01b600052602160045260246000fd5b905250602081018590526001600160a01b0384166040820152815181908390600090610c8657634e487b7160e01b600052603260045260246000fd5b6020908102919091010152609754604051637362304960e11b81526001600160a01b039091169063e6c4609290610cc1908590600401611432565b600060405180830381600087803b158015610cdb57600080fd5b505af1158015610cef573d6000803e3d6000fd5b50505050505050505050565b610d05828261096f565b6104425760008281526065602090815260408083206001600160a01b03851684529091529020805460ff19166001179055610d3d3390565b6001600160a01b0316816001600160a01b0316837f2f8788117e7eff1d82e926ec794901d17c78024a50270940304540a733656f0d60405160405180910390a45050565b610d8b828261096f565b156104425760008281526065602090815260408083206001600160a01b0385168085529252808320805460ff1916905551339285917ff6391f5c32d9c69d2a47ea670b442974b53935d1edc7fd64eb21e047a839171b9190a45050565b60008054610100900460ff1615610e2f578160ff166001148015610e0b5750303b155b610e275760405162461bcd60e51b81526004016102a49061159a565b506000919050565b60005460ff808416911610610e565760405162461bcd60e51b81526004016102a49061159a565b506000805460ff191660ff92909216919091179055600190565b600054610100900460ff16610edb5760405162461bcd60e51b815260206004820152602b60248201527f496e697469616c697a61626c653a20636f6e7472616374206973206e6f74206960448201526a6e697469616c697a696e6760a81b60648201526084016102a4565b565b6104428282610cfb565b610ef1828261096f565b61044257610f09816001600160a01b03166014610f4b565b610f14836020610f4b565b604051602001610f259291906113bd565b60408051601f198184030181529082905262461bcd60e51b82526102a49160040161153a565b60606000610f5a8360026116b7565b610f6590600261169f565b67ffffffffffffffff811115610f8b57634e487b7160e01b600052604160045260246000fd5b6040519080825280601f01601f191660200182016040528015610fb5576020820181803683370190505b509050600360fc1b81600081518110610fde57634e487b7160e01b600052603260045260246000fd5b60200101906001600160f81b031916908160001a905350600f60fb1b8160018151811061101b57634e487b7160e01b600052603260045260246000fd5b60200101906001600160f81b031916908160001a905350600061103f8460026116b7565b61104a90600161169f565b90505b60018111156110de576f181899199a1a9b1b9c1cb0b131b232b360811b85600f166010811061108c57634e487b7160e01b600052603260045260246000fd5b1a60f81b8282815181106110b057634e487b7160e01b600052603260045260246000fd5b60200101906001600160f81b031916908160001a90535060049490941c936110d781611706565b905061104d565b50831561112d5760405162461bcd60e51b815260206004820181905260248201527f537472696e67733a20686578206c656e67746820696e73756666696369656e7460448201526064016102a4565b9392505050565b6040518060a001604052806000815260200160008152602001600081526020016000815260200160006001600160a01b031681525090565b600082601f83011261117c578081fd5b8151602061119161118c8361167b565b61164a565b80838252828201915082860187848660051b89010111156111b0578586fd5b855b858110156111ce578151845292840192908401906001016111b2565b5090979650505050505050565b600080604083850312156111ed578182fd5b82356111f881611764565b9150602083013561120881611764565b809150509250929050565b600080600060608486031215611227578081fd5b835167ffffffffffffffff8082111561123e578283fd5b818601915086601f830112611251578283fd5b8151602061126161118c8361167b565b8083825282820191508286018b848660051b8901011115611280578788fd5b8796505b848710156112ab57805161129781611764565b835260019690960195918301918301611284565b50918901519197509093505050808211156112c4578283fd5b506112d18682870161116c565b925050604084015190509250925092565b6000602082840312156112f3578081fd5b5035919050565b6000806040838503121561130c578182fd5b82359150602083013561120881611764565b600080600060608486031215611332578283fd5b83359250602084013561134481611764565b929592945050506040919091013590565b600060208284031215611366578081fd5b81356001600160e01b03198116811461112d578182fd5b60008060008060808587031215611392578081fd5b84519350602085015192506040850151915060608501516113b281611764565b939692955090935050565b7f416363657373436f6e74726f6c3a206163636f756e74200000000000000000008152600083516113f58160178501602088016116d6565b7001034b99036b4b9b9b4b733903937b6329607d1b60179184019182015283516114268160288401602088016116d6565b01602801949350505050565b602080825282518282018190526000919060409081850190868401855b828110156114ae57815180516003811061147757634e487b7160e01b89526021600452602489fd5b85528087015187860152858101516001600160a01b031686860152606090810151908501526080909301929085019060010161144f565b5091979650505050505050565b6020808252825182820181905260009190848201906040850190845b8181101561152e5761151b838551805182526020808201519083015260408082015190830152606080820151908301526080908101516001600160a01b0316910152565b9284019260a092909201916001016114d7565b50909695505050505050565b60208152600082518060208401526115598160408501602087016116d6565b601f01601f19169190910160400192915050565b602080825260139082015272141bdbdb08191bd95cc81b9bdd08195e1a5cdd606a1b604082015260600190565b6020808252602e908201527f496e697469616c697a61626c653a20636f6e747261637420697320616c72656160408201526d191e481a5b9a5d1a585b1a5e995960921b606082015260800190565b6020808252600a90820152690c1e081c1bdbdb081a5960b21b604082015260600190565b815181526020808301519082015260408083015190820152606080830151908201526080808301516001600160a01b03169082015260a08101610280565b604051601f8201601f1916810167ffffffffffffffff811182821017156116735761167361174e565b604052919050565b600067ffffffffffffffff8211156116955761169561174e565b5060051b60200190565b600082198211156116b2576116b2611738565b500190565b60008160001904831182151516156116d1576116d1611738565b500290565b60005b838110156116f15781810151838201526020016116d9565b83811115611700576000848401525b50505050565b60008161171557611715611738565b506000190190565b600060001982141561173157611731611738565b5060010190565b634e487b7160e01b600052601160045260246000fd5b634e487b7160e01b600052604160045260246000fd5b6001600160a01b0381168114610b9457600080fdfe3e59f5c015afafa4446937a94731d351ef1be1de9f50fff360feeb85a696a465a2646970667358221220f242fe685082a2b6c79f301f24eae738f8ea98d2955b47f4d24f1218e7da4f3b64736f6c63430008040033496e697469616c697a61626c653a20636f6e747261637420697320616c726561",
  "linkReferences": {},
  "deployedLinkReferences": {}
}