{
  "_format": "hh-sol-artifact-1",
  "contractName": "WrappedRebaseToken",
  "sourceName": "contracts/WrappedAaalto.sol",
  "abi": [
    {
      "inputs": [
        {
          "internalType": "address",
          "name": "_aalto",
          "type": "address"
        }
      ],
      "stateMutability": "nonpayable",
      "type": "constructor"
    },
    {
      "anonymous": false,
      "inputs": [
        {
          "indexed": true,
          "internalType": "address",
          "name": "owner",
          "type": "address"
        },
        {
          "indexed": true,
          "internalType": "address",
          "name": "spender",
          "type": "address"
        },
        {
          "indexed": false,
          "internalType": "uint256",
          "name": "value",
          "type": "uint256"
        }
      ],
      "name": "Approval",
      "type": "event"
    },
    {
      "anonymous": false,
      "inputs": [
        {
          "indexed": true,
          "internalType": "address",
          "name": "oldOwner",
          "type": "address"
        },
        {
          "indexed": true,
          "internalType": "address",
          "name": "newOwner",
          "type": "address"
        }
      ],
      "name": "OwnerSet",
      "type": "event"
    },
    {
      "anonymous": false,
      "inputs": [
        {
          "indexed": false,
          "internalType": "address",
          "name": "account",
          "type": "address"
        },
        {
          "indexed": false,
          "internalType": "bool",
          "name": "isMarketMaker",
          "type": "bool"
        }
      ],
      "name": "SetAutomatedMarketMaker",
      "type": "event"
    },
    {
      "anonymous": false,
      "inputs": [
        {
          "indexed": false,
          "internalType": "address",
          "name": "recipient",
          "type": "address"
        }
      ],
      "name": "SetBuyFeeRecipient",
      "type": "event"
    },
    {
      "anonymous": false,
      "inputs": [
        {
          "indexed": false,
          "internalType": "address",
          "name": "account",
          "type": "address"
        },
        {
          "indexed": false,
          "internalType": "bool",
          "name": "isFeeExempt",
          "type": "bool"
        }
      ],
      "name": "SetFeeExemption",
      "type": "event"
    },
    {
      "anonymous": false,
      "inputs": [
        {
          "indexed": false,
          "internalType": "uint256",
          "name": "buyFee",
          "type": "uint256"
        },
        {
          "indexed": false,
          "internalType": "uint256",
          "name": "sellFee",
          "type": "uint256"
        },
        {
          "indexed": false,
          "internalType": "uint256",
          "name": "transferFee",
          "type": "uint256"
        }
      ],
      "name": "SetFees",
      "type": "event"
    },
    {
      "anonymous": false,
      "inputs": [
        {
          "indexed": false,
          "internalType": "address",
          "name": "recipient",
          "type": "address"
        }
      ],
      "name": "SetSellFeeRecipient",
      "type": "event"
    },
    {
      "anonymous": false,
      "inputs": [
        {
          "indexed": false,
          "internalType": "address",
          "name": "recipient",
          "type": "address"
        }
      ],
      "name": "SetTransferFeeRecipient",
      "type": "event"
    },
    {
      "anonymous": false,
      "inputs": [
        {
          "indexed": true,
          "internalType": "address",
          "name": "from",
          "type": "address"
        },
        {
          "indexed": true,
          "internalType": "address",
          "name": "to",
          "type": "address"
        },
        {
          "indexed": false,
          "internalType": "uint256",
          "name": "value",
          "type": "uint256"
        }
      ],
      "name": "Transfer",
      "type": "event"
    },
    {
      "inputs": [],
      "name": "Aalto",
      "outputs": [
        {
          "internalType": "contract IERC20",
          "name": "",
          "type": "address"
        }
      ],
      "stateMutability": "view",
      "type": "function"
    },
    {
      "inputs": [],
      "name": "TAX_DENOM",
      "outputs": [
        {
          "internalType": "uint256",
          "name": "",
          "type": "uint256"
        }
      ],
      "stateMutability": "view",
      "type": "function"
    },
    {
      "inputs": [
        {
          "internalType": "address",
          "name": "holder",
          "type": "address"
        },
        {
          "internalType": "address",
          "name": "spender",
          "type": "address"
        }
      ],
      "name": "allowance",
      "outputs": [
        {
          "internalType": "uint256",
          "name": "",
          "type": "uint256"
        }
      ],
      "stateMutability": "view",
      "type": "function"
    },
    {
      "inputs": [
        {
          "internalType": "address",
          "name": "spender",
          "type": "address"
        },
        {
          "internalType": "uint256",
          "name": "amount",
          "type": "uint256"
        }
      ],
      "name": "approve",
      "outputs": [
        {
          "internalType": "bool",
          "name": "",
          "type": "bool"
        }
      ],
      "stateMutability": "nonpayable",
      "type": "function"
    },
    {
      "inputs": [
        {
          "internalType": "address",
          "name": "account",
          "type": "address"
        }
      ],
      "name": "balanceOf",
      "outputs": [
        {
          "internalType": "uint256",
          "name": "",
          "type": "uint256"
        }
      ],
      "stateMutability": "view",
      "type": "function"
    },
    {
      "inputs": [
        {
          "internalType": "uint256",
          "name": "amount",
          "type": "uint256"
        }
      ],
      "name": "burn",
      "outputs": [
        {
          "internalType": "bool",
          "name": "",
          "type": "bool"
        }
      ],
      "stateMutability": "nonpayable",
      "type": "function"
    },
    {
      "inputs": [
        {
          "internalType": "address",
          "name": "account",
          "type": "address"
        },
        {
          "internalType": "uint256",
          "name": "amount",
          "type": "uint256"
        }
      ],
      "name": "burnFrom",
      "outputs": [
        {
          "internalType": "bool",
          "name": "",
          "type": "bool"
        }
      ],
      "stateMutability": "nonpayable",
      "type": "function"
    },
    {
      "inputs": [],
      "name": "buyFee",
      "outputs": [
        {
          "internalType": "uint256",
          "name": "",
          "type": "uint256"
        }
      ],
      "stateMutability": "view",
      "type": "function"
    },
    {
      "inputs": [],
      "name": "buyFeeRecipient",
      "outputs": [
        {
          "internalType": "address",
          "name": "",
          "type": "address"
        }
      ],
      "stateMutability": "view",
      "type": "function"
    },
    {
      "inputs": [
        {
          "internalType": "address",
          "name": "newOwner",
          "type": "address"
        }
      ],
      "name": "changeOwner",
      "outputs": [],
      "stateMutability": "nonpayable",
      "type": "function"
    },
    {
      "inputs": [],
      "name": "decimals",
      "outputs": [
        {
          "internalType": "uint8",
          "name": "",
          "type": "uint8"
        }
      ],
      "stateMutability": "pure",
      "type": "function"
    },
    {
      "inputs": [],
      "name": "getOwner",
      "outputs": [
        {
          "internalType": "address",
          "name": "",
          "type": "address"
        }
      ],
      "stateMutability": "view",
      "type": "function"
    },
    {
      "inputs": [],
      "name": "getRedeemRate",
      "outputs": [
        {
          "internalType": "uint256",
          "name": "",
          "type": "uint256"
        }
      ],
      "stateMutability": "view",
      "type": "function"
    },
    {
      "inputs": [
        {
          "internalType": "address",
          "name": "sender",
          "type": "address"
        },
        {
          "internalType": "address",
          "name": "recipient",
          "type": "address"
        },
        {
          "internalType": "uint256",
          "name": "amount",
          "type": "uint256"
        }
      ],
      "name": "getTax",
      "outputs": [
        {
          "internalType": "uint256",
          "name": "",
          "type": "uint256"
        },
        {
          "internalType": "address",
          "name": "",
          "type": "address"
        }
      ],
      "stateMutability": "view",
      "type": "function"
    },
    {
      "inputs": [
        {
          "internalType": "uint256",
          "name": "amount",
          "type": "uint256"
        }
      ],
      "name": "getUnwrappedQuantity",
      "outputs": [
        {
          "internalType": "uint256",
          "name": "",
          "type": "uint256"
        }
      ],
      "stateMutability": "view",
      "type": "function"
    },
    {
      "inputs": [
        {
          "internalType": "uint256",
          "name": "amount",
          "type": "uint256"
        }
      ],
      "name": "getWrappedQuantity",
      "outputs": [
        {
          "internalType": "uint256",
          "name": "",
          "type": "uint256"
        }
      ],
      "stateMutability": "view",
      "type": "function"
    },
    {
      "inputs": [],
      "name": "name",
      "outputs": [
        {
          "internalType": "string",
          "name": "",
          "type": "string"
        }
      ],
      "stateMutability": "pure",
      "type": "function"
    },
    {
      "inputs": [
        {
          "internalType": "address",
          "name": "",
          "type": "address"
        }
      ],
      "name": "permissions",
      "outputs": [
        {
          "internalType": "bool",
          "name": "isFeeExempt",
          "type": "bool"
        },
        {
          "internalType": "bool",
          "name": "isLiquidityPool",
          "type": "bool"
        }
      ],
      "stateMutability": "view",
      "type": "function"
    },
    {
      "inputs": [
        {
          "internalType": "address",
          "name": "account",
          "type": "address"
        }
      ],
      "name": "registerAutomatedMarketMaker",
      "outputs": [],
      "stateMutability": "nonpayable",
      "type": "function"
    },
    {
      "inputs": [],
      "name": "sellFee",
      "outputs": [
        {
          "internalType": "uint256",
          "name": "",
          "type": "uint256"
        }
      ],
      "stateMutability": "view",
      "type": "function"
    },
    {
      "inputs": [],
      "name": "sellFeeRecipient",
      "outputs": [
        {
          "internalType": "address",
          "name": "",
          "type": "address"
        }
      ],
      "stateMutability": "view",
      "type": "function"
    },
    {
      "inputs": [
        {
          "internalType": "address",
          "name": "recipient",
          "type": "address"
        }
      ],
      "name": "setBuyFeeRecipient",
      "outputs": [],
      "stateMutability": "nonpayable",
      "type": "function"
    },
    {
      "inputs": [
        {
          "internalType": "address",
          "name": "account",
          "type": "address"
        },
        {
          "internalType": "bool",
          "name": "isExempt",
          "type": "bool"
        }
      ],
      "name": "setFeeExempt",
      "outputs": [],
      "stateMutability": "nonpayable",
      "type": "function"
    },
    {
      "inputs": [
        {
          "internalType": "uint256",
          "name": "_buyFee",
          "type": "uint256"
        },
        {
          "internalType": "uint256",
          "name": "_sellFee",
          "type": "uint256"
        },
        {
          "internalType": "uint256",
          "name": "_transferFee",
          "type": "uint256"
        }
      ],
      "name": "setFees",
      "outputs": [],
      "stateMutability": "nonpayable",
      "type": "function"
    },
    {
      "inputs": [
        {
          "internalType": "address",
          "name": "recipient",
          "type": "address"
        }
      ],
      "name": "setSellFeeRecipient",
      "outputs": [],
      "stateMutability": "nonpayable",
      "type": "function"
    },
    {
      "inputs": [
        {
          "internalType": "address",
          "name": "recipient",
          "type": "address"
        }
      ],
      "name": "setTransferFeeRecipient",
      "outputs": [],
      "stateMutability": "nonpayable",
      "type": "function"
    },
    {
      "inputs": [],
      "name": "symbol",
      "outputs": [
        {
          "internalType": "string",
          "name": "",
          "type": "string"
        }
      ],
      "stateMutability": "pure",
      "type": "function"
    },
    {
      "inputs": [],
      "name": "totalSupply",
      "outputs": [
        {
          "internalType": "uint256",
          "name": "",
          "type": "uint256"
        }
      ],
      "stateMutability": "view",
      "type": "function"
    },
    {
      "inputs": [
        {
          "internalType": "address",
          "name": "recipient",
          "type": "address"
        },
        {
          "internalType": "uint256",
          "name": "amount",
          "type": "uint256"
        }
      ],
      "name": "transfer",
      "outputs": [
        {
          "internalType": "bool",
          "name": "",
          "type": "bool"
        }
      ],
      "stateMutability": "nonpayable",
      "type": "function"
    },
    {
      "inputs": [],
      "name": "transferFee",
      "outputs": [
        {
          "internalType": "uint256",
          "name": "",
          "type": "uint256"
        }
      ],
      "stateMutability": "view",
      "type": "function"
    },
    {
      "inputs": [],
      "name": "transferFeeRecipient",
      "outputs": [
        {
          "internalType": "address",
          "name": "",
          "type": "address"
        }
      ],
      "stateMutability": "view",
      "type": "function"
    },
    {
      "inputs": [
        {
          "internalType": "address",
          "name": "sender",
          "type": "address"
        },
        {
          "internalType": "address",
          "name": "recipient",
          "type": "address"
        },
        {
          "internalType": "uint256",
          "name": "amount",
          "type": "uint256"
        }
      ],
      "name": "transferFrom",
      "outputs": [
        {
          "internalType": "bool",
          "name": "",
          "type": "bool"
        }
      ],
      "stateMutability": "nonpayable",
      "type": "function"
    },
    {
      "inputs": [
        {
          "internalType": "address",
          "name": "account",
          "type": "address"
        }
      ],
      "name": "unRegisterAutomatedMarketMaker",
      "outputs": [],
      "stateMutability": "nonpayable",
      "type": "function"
    },
    {
      "inputs": [
        {
          "internalType": "uint256",
          "name": "amount",
          "type": "uint256"
        }
      ],
      "name": "unwrap",
      "outputs": [],
      "stateMutability": "nonpayable",
      "type": "function"
    },
    {
      "inputs": [
        {
          "internalType": "address",
          "name": "token",
          "type": "address"
        }
      ],
      "name": "withdraw",
      "outputs": [],
      "stateMutability": "nonpayable",
      "type": "function"
    },
    {
      "inputs": [],
      "name": "withdrawBNB",
      "outputs": [],
      "stateMutability": "nonpayable",
      "type": "function"
    },
    {
      "inputs": [
        {
          "internalType": "uint256",
          "name": "amount",
          "type": "uint256"
        }
      ],
      "name": "wrap",
      "outputs": [],
      "stateMutability": "nonpayable",
      "type": "function"
    },
    {
      "stateMutability": "payable",
      "type": "receive"
    }
  ],
  "bytecode": "0x60a06040526105146004556106a46005556105146006553480156200002357600080fd5b5060405162004a8338038062004a83833981810160405281019062000049919062000235565b336000806101000a81548173ffffffffffffffffffffffffffffffffffffffff021916908373ffffffffffffffffffffffffffffffffffffffff16021790555060008054906101000a900473ffffffffffffffffffffffffffffffffffffffff1673ffffffffffffffffffffffffffffffffffffffff16600073ffffffffffffffffffffffffffffffffffffffff167f342827c97908e5e2f71151c08502a66d44b6f758e3ac2f1de95f02eb95f0a73560405160405180910390a3600073ffffffffffffffffffffffffffffffffffffffff168173ffffffffffffffffffffffffffffffffffffffff16141562000177576040517f08c379a00000000000000000000000000000000000000000000000000000000081526004016200016e90620002b6565b60405180910390fd5b8073ffffffffffffffffffffffffffffffffffffffff1660808173ffffffffffffffffffffffffffffffffffffffff1660601b815250503373ffffffffffffffffffffffffffffffffffffffff16600073ffffffffffffffffffffffffffffffffffffffff167fddf252ad1be2c89b69c2b068fc378daa952ba7f163c4a11628f55a4df523b3ef60006040516200020f919062000299565b60405180910390a3506200037e565b6000815190506200022f8162000364565b92915050565b6000602082840312156200024857600080fd5b600062000258848285016200021e565b91505092915050565b6200026c8162000327565b82525050565b600062000281600d83620002d8565b91506200028e826200033b565b602082019050919050565b6000602082019050620002b0600083018462000261565b92915050565b60006020820190508181036000830152620002d18162000272565b9050919050565b600082825260208201905092915050565b6000620002f682620002fd565b9050919050565b600073ffffffffffffffffffffffffffffffffffffffff82169050919050565b6000819050919050565b600062000334826200031d565b9050919050565b7f41616c746f206e6f742073657400000000000000000000000000000000000000600082015250565b6200036f81620002e9565b81146200037b57600080fd5b50565b60805160601c6146ae620003d56000396000818161125d01528181611fa201528181612079015281816122f5015281816126a6015281816127d9015281816128e3015281816129900152612a4701526146ae6000f3fe60806040526004361061021e5760003560e01c806379cc679011610123578063acb2ad6f116100ab578063d7ad21ac1161006f578063d7ad21ac14610807578063dd62ed3e14610845578063de0e9a3e14610882578063ea598cb0146108ab578063f89532a2146108d457610225565b8063acb2ad6f14610720578063bb54ff941461074b578063c09c5fa914610788578063cec10c11146107b3578063d15793d8146107dc57610225565b806395d89b41116100f257806395d89b411461063b5780639a44b9e314610666578063a6f9dae114610691578063a9059cbb146106ba578063ac4dcb76146106f757610225565b806379cc67901461057f578063893d20e8146105bc5780638ebfc796146105e757806392a39d911461061057610225565b8063304561bb116101a65780634706240211610175578063470624021461049c57806351cff8d9146104c757806365fe050e146104f057806367ffa8281461051957806370a082311461054257610225565b8063304561bb146103e0578063313ce5671461040b5780633eb193e21461043657806342966c681461045f57610225565b80631b53b563116101ed5780631b53b563146102fb5780631d111d131461033857806323b872dd1461034f5780632ac7b8241461038c5780632b14ca56146103b557610225565b806301e882081461022a57806306fdde0314610268578063095ea7b31461029357806318160ddd146102d057610225565b3661022557005b600080fd5b34801561023657600080fd5b50610251600480360381019061024c919061371c565b6108ff565b60405161025f929190613d26565b60405180910390f35b34801561027457600080fd5b5061027d61093d565b60405161028a9190613d6a565b60405180910390f35b34801561029f57600080fd5b506102ba60048036038101906102b5919061380c565b61097a565b6040516102c79190613d0b565b60405180910390f35b3480156102dc57600080fd5b506102e5610a6c565b6040516102f29190613fec565b60405180910390f35b34801561030757600080fd5b50610322600480360381019061031d9190613871565b610a76565b60405161032f9190613fec565b60405180910390f35b34801561034457600080fd5b5061034d610ab3565b005b34801561035b57600080fd5b5061037660048036038101906103719190613781565b610bba565b6040516103839190613d0b565b60405180910390f35b34801561039857600080fd5b506103b360048036038101906103ae919061371c565b610d16565b005b3480156103c157600080fd5b506103ca610f3b565b6040516103d79190613fec565b60405180910390f35b3480156103ec57600080fd5b506103f5610f41565b6040516104029190613c67565b60405180910390f35b34801561041757600080fd5b50610420610f67565b60405161042d9190614067565b60405180910390f35b34801561044257600080fd5b5061045d6004803603810190610458919061371c565b610f70565b005b34801561046b57600080fd5b5061048660048036038101906104819190613871565b611144565b6040516104939190613d0b565b60405180910390f35b3480156104a857600080fd5b506104b1611157565b6040516104be9190613fec565b60405180910390f35b3480156104d357600080fd5b506104ee60048036038101906104e9919061371c565b61115d565b005b3480156104fc57600080fd5b506105176004803603810190610512919061371c565b611447565b005b34801561052557600080fd5b50610540600480360381019061053b919061371c565b61166d565b005b34801561054e57600080fd5b506105696004803603810190610564919061371c565b611841565b6040516105769190613fec565b60405180910390f35b34801561058b57600080fd5b506105a660048036038101906105a1919061380c565b61188a565b6040516105b39190613d0b565b60405180910390f35b3480156105c857600080fd5b506105d16119e4565b6040516105de9190613c67565b60405180910390f35b3480156105f357600080fd5b5061060e600480360381019061060991906137d0565b611a0d565b005b34801561061c57600080fd5b50610625611ba2565b6040516106329190613c67565b60405180910390f35b34801561064757600080fd5b50610650611bc8565b60405161065d9190613d6a565b60405180910390f35b34801561067257600080fd5b5061067b611c05565b6040516106889190613c67565b60405180910390f35b34801561069d57600080fd5b506106b860048036038101906106b3919061371c565b611c2b565b005b3480156106c657600080fd5b506106e160048036038101906106dc919061380c565b611d76565b6040516106ee9190613d0b565b60405180910390f35b34801561070357600080fd5b5061071e6004803603810190610719919061371c565b611d8b565b005b34801561072c57600080fd5b50610735611f5f565b6040516107429190613fec565b60405180910390f35b34801561075757600080fd5b50610772600480360381019061076d9190613871565b611f65565b60405161077f9190613fec565b60405180910390f35b34801561079457600080fd5b5061079d612063565b6040516107aa9190613fec565b60405180910390f35b3480156107bf57600080fd5b506107da60048036038101906107d591906138c3565b612141565b005b3480156107e857600080fd5b506107f16122f3565b6040516107fe9190613d4f565b60405180910390f35b34801561081357600080fd5b5061082e60048036038101906108299190613781565b612317565b60405161083c929190614007565b60405180910390f35b34801561085157600080fd5b5061086c60048036038101906108679190613745565b612577565b6040516108799190613fec565b60405180910390f35b34801561088e57600080fd5b506108a960048036038101906108a49190613871565b6125fe565b005b3480156108b757600080fd5b506108d260048036038101906108cd9190613871565b612794565b005b3480156108e057600080fd5b506108e9612b68565b6040516108f69190613fec565b60405180910390f35b60076020528060005260406000206000915090508060000160009054906101000a900460ff16908060000160019054906101000a900460ff16905082565b60606040518060400160405280600d81526020017f577261707065642d41616c746f00000000000000000000000000000000000000815250905090565b600081600360003373ffffffffffffffffffffffffffffffffffffffff1673ffffffffffffffffffffffffffffffffffffffff16815260200190815260200160002060008573ffffffffffffffffffffffffffffffffffffffff1673ffffffffffffffffffffffffffffffffffffffff168152602001908152602001600020819055508273ffffffffffffffffffffffffffffffffffffffff163373ffffffffffffffffffffffffffffffffffffffff167f8c5be1e5ebec7d5bd14f71427d1e84f3dd0314c0f7b2291e5b200ac8c7c3b92584604051610a5a9190613fec565b60405180910390a36001905092915050565b6000600154905090565b6000610aac610a83612063565b610a9e670de0b6b3a764000085612b6e90919063ffffffff16565b612be990919063ffffffff16565b9050919050565b60008054906101000a900473ffffffffffffffffffffffffffffffffffffffff1673ffffffffffffffffffffffffffffffffffffffff163373ffffffffffffffffffffffffffffffffffffffff1614610b41576040517f08c379a0000000000000000000000000000000000000000000000000000000008152600401610b3890613dcc565b60405180910390fd5b60003373ffffffffffffffffffffffffffffffffffffffff1647604051610b6790613c52565b60006040518083038185875af1925050503d8060008114610ba4576040519150601f19603f3d011682016040523d82523d6000602084013e610ba9565b606091505b5050905080610bb757600080fd5b50565b6000610c82826040518060400160405280601681526020017f496e73756666696369656e7420416c6c6f77616e636500000000000000000000815250600360008873ffffffffffffffffffffffffffffffffffffffff1673ffffffffffffffffffffffffffffffffffffffff16815260200190815260200160002060003373ffffffffffffffffffffffffffffffffffffffff1673ffffffffffffffffffffffffffffffffffffffff16815260200190815260200160002054612c339092919063ffffffff16565b600360008673ffffffffffffffffffffffffffffffffffffffff1673ffffffffffffffffffffffffffffffffffffffff16815260200190815260200160002060003373ffffffffffffffffffffffffffffffffffffffff1673ffffffffffffffffffffffffffffffffffffffff16815260200190815260200160002081905550610d0d848484612c97565b90509392505050565b60008054906101000a900473ffffffffffffffffffffffffffffffffffffffff1673ffffffffffffffffffffffffffffffffffffffff163373ffffffffffffffffffffffffffffffffffffffff1614610da4576040517f08c379a0000000000000000000000000000000000000000000000000000000008152600401610d9b90613dcc565b60405180910390fd5b600073ffffffffffffffffffffffffffffffffffffffff168173ffffffffffffffffffffffffffffffffffffffff161415610e14576040517f08c379a0000000000000000000000000000000000000000000000000000000008152600401610e0b90613ecc565b60405180910390fd5b600760008273ffffffffffffffffffffffffffffffffffffffff1673ffffffffffffffffffffffffffffffffffffffff16815260200190815260200160002060000160019054906101000a900460ff16610ea3576040517f08c379a0000000000000000000000000000000000000000000000000000000008152600401610e9a90613e0c565b60405180910390fd5b6000600760008373ffffffffffffffffffffffffffffffffffffffff1673ffffffffffffffffffffffffffffffffffffffff16815260200190815260200160002060000160016101000a81548160ff0219169083151502179055507fc61655276240ba149963bf00ed68118036aceb86661c8530fc627aeb83d9d1f2816000604051610f30929190613cb9565b60405180910390a150565b60055481565b600a60009054906101000a900473ffffffffffffffffffffffffffffffffffffffff1681565b60006012905090565b60008054906101000a900473ffffffffffffffffffffffffffffffffffffffff1673ffffffffffffffffffffffffffffffffffffffff163373ffffffffffffffffffffffffffffffffffffffff1614610ffe576040517f08c379a0000000000000000000000000000000000000000000000000000000008152600401610ff590613dcc565b60405180910390fd5b600073ffffffffffffffffffffffffffffffffffffffff168173ffffffffffffffffffffffffffffffffffffffff16141561106e576040517f08c379a000000000000000000000000000000000000000000000000000000000815260040161106590613ecc565b60405180910390fd5b80600960006101000a81548173ffffffffffffffffffffffffffffffffffffffff021916908373ffffffffffffffffffffffffffffffffffffffff1602179055506001600760008373ffffffffffffffffffffffffffffffffffffffff1673ffffffffffffffffffffffffffffffffffffffff16815260200190815260200160002060000160006101000a81548160ff0219169083151502179055507fc1705819a90a4e9c9fba1872573191b370b8778cd644e0050b90c99b3c0762a9816040516111399190613c67565b60405180910390a150565b60006111503383613147565b9050919050565b60045481565b60008054906101000a900473ffffffffffffffffffffffffffffffffffffffff1673ffffffffffffffffffffffffffffffffffffffff163373ffffffffffffffffffffffffffffffffffffffff16146111eb576040517f08c379a00000000000000000000000000000000000000000000000000000000081526004016111e290613dcc565b60405180910390fd5b600073ffffffffffffffffffffffffffffffffffffffff168173ffffffffffffffffffffffffffffffffffffffff16141561125b576040517f08c379a000000000000000000000000000000000000000000000000000000000815260040161125290613ecc565b60405180910390fd5b7f000000000000000000000000000000000000000000000000000000000000000073ffffffffffffffffffffffffffffffffffffffff168173ffffffffffffffffffffffffffffffffffffffff1614156112ea576040517f08c379a00000000000000000000000000000000000000000000000000000000081526004016112e190613e4c565b60405180910390fd5b60008173ffffffffffffffffffffffffffffffffffffffff1663a9059cbb338473ffffffffffffffffffffffffffffffffffffffff166370a08231306040518263ffffffff1660e01b81526004016113429190613c67565b60206040518083038186803b15801561135a57600080fd5b505afa15801561136e573d6000803e3d6000fd5b505050506040513d601f19601f82011682018060405250810190611392919061389a565b6040518363ffffffff1660e01b81526004016113af929190613ce2565b602060405180830381600087803b1580156113c957600080fd5b505af11580156113dd573d6000803e3d6000fd5b505050506040513d601f19601f820116820180604052508101906114019190613848565b905080611443576040517f08c379a000000000000000000000000000000000000000000000000000000000815260040161143a90613eec565b60405180910390fd5b5050565b60008054906101000a900473ffffffffffffffffffffffffffffffffffffffff1673ffffffffffffffffffffffffffffffffffffffff163373ffffffffffffffffffffffffffffffffffffffff16146114d5576040517f08c379a00000000000000000000000000000000000000000000000000000000081526004016114cc90613dcc565b60405180910390fd5b600073ffffffffffffffffffffffffffffffffffffffff168173ffffffffffffffffffffffffffffffffffffffff161415611545576040517f08c379a000000000000000000000000000000000000000000000000000000000815260040161153c90613ecc565b60405180910390fd5b600760008273ffffffffffffffffffffffffffffffffffffffff1673ffffffffffffffffffffffffffffffffffffffff16815260200190815260200160002060000160019054906101000a900460ff16156115d5576040517f08c379a00000000000000000000000000000000000000000000000000000000081526004016115cc90613d8c565b60405180910390fd5b6001600760008373ffffffffffffffffffffffffffffffffffffffff1673ffffffffffffffffffffffffffffffffffffffff16815260200190815260200160002060000160016101000a81548160ff0219169083151502179055507fc61655276240ba149963bf00ed68118036aceb86661c8530fc627aeb83d9d1f2816001604051611662929190613cb9565b60405180910390a150565b60008054906101000a900473ffffffffffffffffffffffffffffffffffffffff1673ffffffffffffffffffffffffffffffffffffffff163373ffffffffffffffffffffffffffffffffffffffff16146116fb576040517f08c379a00000000000000000000000000000000000000000000000000000000081526004016116f290613dcc565b60405180910390fd5b600073ffffffffffffffffffffffffffffffffffffffff168173ffffffffffffffffffffffffffffffffffffffff16141561176b576040517f08c379a000000000000000000000000000000000000000000000000000000000815260040161176290613ecc565b60405180910390fd5b80600860006101000a81548173ffffffffffffffffffffffffffffffffffffffff021916908373ffffffffffffffffffffffffffffffffffffffff1602179055506001600760008373ffffffffffffffffffffffffffffffffffffffff1673ffffffffffffffffffffffffffffffffffffffff16815260200190815260200160002060000160006101000a81548160ff0219169083151502179055507fffba9995ed8a822e426a175c6a29db4e239f0788c470ba2588c6bb3cc486a449816040516118369190613c67565b60405180910390a150565b6000600260008373ffffffffffffffffffffffffffffffffffffffff1673ffffffffffffffffffffffffffffffffffffffff168152602001908152602001600020549050919050565b6000611952826040518060400160405280601681526020017f496e73756666696369656e7420416c6c6f77616e636500000000000000000000815250600360008773ffffffffffffffffffffffffffffffffffffffff1673ffffffffffffffffffffffffffffffffffffffff16815260200190815260200160002060003373ffffffffffffffffffffffffffffffffffffffff1673ffffffffffffffffffffffffffffffffffffffff16815260200190815260200160002054612c339092919063ffffffff16565b600360008573ffffffffffffffffffffffffffffffffffffffff1673ffffffffffffffffffffffffffffffffffffffff16815260200190815260200160002060003373ffffffffffffffffffffffffffffffffffffffff1673ffffffffffffffffffffffffffffffffffffffff168152602001908152602001600020819055506119dc8383613147565b905092915050565b60008060009054906101000a900473ffffffffffffffffffffffffffffffffffffffff16905090565b60008054906101000a900473ffffffffffffffffffffffffffffffffffffffff1673ffffffffffffffffffffffffffffffffffffffff163373ffffffffffffffffffffffffffffffffffffffff1614611a9b576040517f08c379a0000000000000000000000000000000000000000000000000000000008152600401611a9290613dcc565b60405180910390fd5b600073ffffffffffffffffffffffffffffffffffffffff168273ffffffffffffffffffffffffffffffffffffffff161415611b0b576040517f08c379a0000000000000000000000000000000000000000000000000000000008152600401611b0290613ecc565b60405180910390fd5b80600760008473ffffffffffffffffffffffffffffffffffffffff1673ffffffffffffffffffffffffffffffffffffffff16815260200190815260200160002060000160006101000a81548160ff0219169083151502179055507f2293b760d6615c0f087e78599ce64d67197a7dba78cdd9e241f3cd23b46101f38282604051611b96929190613cb9565b60405180910390a15050565b600860009054906101000a900473ffffffffffffffffffffffffffffffffffffffff1681565b60606040518060400160405280600681526020017f7741616c746f0000000000000000000000000000000000000000000000000000815250905090565b600960009054906101000a900473ffffffffffffffffffffffffffffffffffffffff1681565b60008054906101000a900473ffffffffffffffffffffffffffffffffffffffff1673ffffffffffffffffffffffffffffffffffffffff163373ffffffffffffffffffffffffffffffffffffffff1614611cb9576040517f08c379a0000000000000000000000000000000000000000000000000000000008152600401611cb090613dcc565b60405180910390fd5b8073ffffffffffffffffffffffffffffffffffffffff1660008054906101000a900473ffffffffffffffffffffffffffffffffffffffff1673ffffffffffffffffffffffffffffffffffffffff167f342827c97908e5e2f71151c08502a66d44b6f758e3ac2f1de95f02eb95f0a73560405160405180910390a3806000806101000a81548173ffffffffffffffffffffffffffffffffffffffff021916908373ffffffffffffffffffffffffffffffffffffffff16021790555050565b6000611d83338484612c97565b905092915050565b60008054906101000a900473ffffffffffffffffffffffffffffffffffffffff1673ffffffffffffffffffffffffffffffffffffffff163373ffffffffffffffffffffffffffffffffffffffff1614611e19576040517f08c379a0000000000000000000000000000000000000000000000000000000008152600401611e1090613dcc565b60405180910390fd5b600073ffffffffffffffffffffffffffffffffffffffff168173ffffffffffffffffffffffffffffffffffffffff161415611e89576040517f08c379a0000000000000000000000000000000000000000000000000000000008152600401611e8090613ecc565b60405180910390fd5b80600a60006101000a81548173ffffffffffffffffffffffffffffffffffffffff021916908373ffffffffffffffffffffffffffffffffffffffff1602179055506001600760008373ffffffffffffffffffffffffffffffffffffffff1673ffffffffffffffffffffffffffffffffffffffff16815260200190815260200160002060000160006101000a81548160ff0219169083151502179055507f78dd3f4c755a9774505b9155386a8765af9250233430ebf8ad314a8a76e43c6b81604051611f549190613c67565b60405180910390a150565b60065481565b600080611f9c670de0b6b3a7640000611f8e611f7f612063565b86612b6e90919063ffffffff16565b612be990919063ffffffff16565b905060007f000000000000000000000000000000000000000000000000000000000000000073ffffffffffffffffffffffffffffffffffffffff166370a08231306040518263ffffffff1660e01b8152600401611ff99190613c67565b60206040518083038186803b15801561201157600080fd5b505afa158015612025573d6000803e3d6000fd5b505050506040513d601f19601f82011682018060405250810190612049919061389a565b9050808210612058578061205a565b815b92505050919050565b600061213c60015461212e670de0b6b3a76400007f000000000000000000000000000000000000000000000000000000000000000073ffffffffffffffffffffffffffffffffffffffff166370a08231306040518263ffffffff1660e01b81526004016120d09190613c67565b60206040518083038186803b1580156120e857600080fd5b505afa1580156120fc573d6000803e3d6000fd5b505050506040513d601f19601f82011682018060405250810190612120919061389a565b612b6e90919063ffffffff16565b612be990919063ffffffff16565b905090565b60008054906101000a900473ffffffffffffffffffffffffffffffffffffffff1673ffffffffffffffffffffffffffffffffffffffff163373ffffffffffffffffffffffffffffffffffffffff16146121cf576040517f08c379a00000000000000000000000000000000000000000000000000000000081526004016121c690613dcc565b60405180910390fd5b6109c4831115612214576040517f08c379a000000000000000000000000000000000000000000000000000000000815260040161220b90613f4c565b60405180910390fd5b6109c4821115612259576040517f08c379a000000000000000000000000000000000000000000000000000000000815260040161225090613dac565b60405180910390fd5b6109c481111561229e576040517f08c379a000000000000000000000000000000000000000000000000000000000815260040161229590613fcc565b60405180910390fd5b8260048190555081600581905550806006819055507f37322890d66d781059d797be5e2f27dc160a34d8bc0a8e09116cb9a773ce88ef8383836040516122e693929190614030565b60405180910390a1505050565b7f000000000000000000000000000000000000000000000000000000000000000081565b600080600760008673ffffffffffffffffffffffffffffffffffffffff1673ffffffffffffffffffffffffffffffffffffffff16815260200190815260200160002060000160009054906101000a900460ff16806123c15750600760008573ffffffffffffffffffffffffffffffffffffffff1673ffffffffffffffffffffffffffffffffffffffff16815260200190815260200160002060000160009054906101000a900460ff165b156123d2576000809150915061256f565b600760008673ffffffffffffffffffffffffffffffffffffffff1673ffffffffffffffffffffffffffffffffffffffff16815260200190815260200160002060000160019054906101000a900460ff1661251d57600760008573ffffffffffffffffffffffffffffffffffffffff1673ffffffffffffffffffffffffffffffffffffffff16815260200190815260200160002060000160019054906101000a900460ff166124cb576124a361271061249560065486612b6e90919063ffffffff16565b612be990919063ffffffff16565b600a60009054906101000a900473ffffffffffffffffffffffffffffffffffffffff16612518565b6124f46127106124e660055486612b6e90919063ffffffff16565b612be990919063ffffffff16565b600860009054906101000a900473ffffffffffffffffffffffffffffffffffffffff165b61256a565b61254661271061253860045486612b6e90919063ffffffff16565b612be990919063ffffffff16565b600960009054906101000a900473ffffffffffffffffffffffffffffffffffffffff165b915091505b935093915050565b6000600360008473ffffffffffffffffffffffffffffffffffffffff1673ffffffffffffffffffffffffffffffffffffffff16815260200190815260200160002060008373ffffffffffffffffffffffffffffffffffffffff1673ffffffffffffffffffffffffffffffffffffffff16815260200190815260200160002054905092915050565b60008111612641576040517f08c379a000000000000000000000000000000000000000000000000000000000815260040161263890613f6c565b60405180910390fd5b61264a33611841565b81111561268c576040517f08c379a000000000000000000000000000000000000000000000000000000000815260040161268390613e8c565b60405180910390fd5b600061269782611f65565b90506126a33383613147565b507f000000000000000000000000000000000000000000000000000000000000000073ffffffffffffffffffffffffffffffffffffffff1663a9059cbb33836040518363ffffffff1660e01b81526004016126ff929190613ce2565b602060405180830381600087803b15801561271957600080fd5b505af115801561272d573d6000803e3d6000fd5b505050506040513d601f19601f820116820180604052508101906127519190613848565b612790576040517f08c379a000000000000000000000000000000000000000000000000000000000815260040161278790613eac565b60405180910390fd5b5050565b600081116127d7576040517f08c379a00000000000000000000000000000000000000000000000000000000081526004016127ce90613f6c565b60405180910390fd5b7f000000000000000000000000000000000000000000000000000000000000000073ffffffffffffffffffffffffffffffffffffffff166370a08231336040518263ffffffff1660e01b81526004016128309190613c67565b60206040518083038186803b15801561284857600080fd5b505afa15801561285c573d6000803e3d6000fd5b505050506040513d601f19601f82011682018060405250810190612880919061389a565b8111156128c2576040517f08c379a00000000000000000000000000000000000000000000000000000000081526004016128b990613f8c565b60405180910390fd5b600080600154146128db576128d682610a76565b6128dd565b815b905060007f000000000000000000000000000000000000000000000000000000000000000073ffffffffffffffffffffffffffffffffffffffff166370a08231306040518263ffffffff1660e01b815260040161293a9190613c67565b60206040518083038186803b15801561295257600080fd5b505afa158015612966573d6000803e3d6000fd5b505050506040513d601f19601f8201168201806040525081019061298a919061389a565b905060007f000000000000000000000000000000000000000000000000000000000000000073ffffffffffffffffffffffffffffffffffffffff166323b872dd3330876040518463ffffffff1660e01b81526004016129eb93929190613c82565b602060405180830381600087803b158015612a0557600080fd5b505af1158015612a19573d6000803e3d6000fd5b505050506040513d601f19601f82011682018060405250810190612a3d9190613848565b90506000612afc837f000000000000000000000000000000000000000000000000000000000000000073ffffffffffffffffffffffffffffffffffffffff166370a08231306040518263ffffffff1660e01b8152600401612a9e9190613c67565b60206040518083038186803b158015612ab657600080fd5b505afa158015612aca573d6000803e3d6000fd5b505050506040513d601f19601f82011682018060405250810190612aee919061389a565b6133d490919063ffffffff16565b9050818015612b0b5750600081115b8015612b175750848111155b612b56576040517f08c379a0000000000000000000000000000000000000000000000000000000008152600401612b4d90613e2c565b60405180910390fd5b612b60338561341e565b505050505050565b61271081565b600080831415612b815760009050612be3565b60008284612b8f9190614130565b9050828482612b9e91906140ff565b14612bde576040517f08c379a0000000000000000000000000000000000000000000000000000000008152600401612bd590613e6c565b60405180910390fd5b809150505b92915050565b6000612c2b83836040518060400160405280601a81526020017f536166654d6174683a206469766973696f6e206279207a65726f0000000000008152506135f2565b905092915050565b6000838311158290612c7b576040517f08c379a0000000000000000000000000000000000000000000000000000000008152600401612c729190613d6a565b60405180910390fd5b5060008385612c8a919061418a565b9050809150509392505050565b60008073ffffffffffffffffffffffffffffffffffffffff168373ffffffffffffffffffffffffffffffffffffffff161415612d08576040517f08c379a0000000000000000000000000000000000000000000000000000000008152600401612cff90613fac565b60405180910390fd5b600073ffffffffffffffffffffffffffffffffffffffff168473ffffffffffffffffffffffffffffffffffffffff161415612d78576040517f08c379a0000000000000000000000000000000000000000000000000000000008152600401612d6f90613f0c565b60405180910390fd5b60008211612dbb576040517f08c379a0000000000000000000000000000000000000000000000000000000008152600401612db290613f6c565b60405180910390fd5b612dc484611841565b821115612e06576040517f08c379a0000000000000000000000000000000000000000000000000000000008152600401612dfd90613f2c565b60405180910390fd5b612e8f826040518060400160405280601181526020017f42616c616e636520556e646572666c6f77000000000000000000000000000000815250600260008873ffffffffffffffffffffffffffffffffffffffff1673ffffffffffffffffffffffffffffffffffffffff16815260200190815260200160002054612c339092919063ffffffff16565b600260008673ffffffffffffffffffffffffffffffffffffffff1673ffffffffffffffffffffffffffffffffffffffff16815260200190815260200160002081905550600080612ee0868686612317565b9150915060008211156130285760008073ffffffffffffffffffffffffffffffffffffffff168273ffffffffffffffffffffffffffffffffffffffff1614612f285781612f2a565b305b9050612f7e83600260008473ffffffffffffffffffffffffffffffffffffffff1673ffffffffffffffffffffffffffffffffffffffff1681526020019081526020016000205461365590919063ffffffff16565b600260008373ffffffffffffffffffffffffffffffffffffffff1673ffffffffffffffffffffffffffffffffffffffff168152602001908152602001600020819055508073ffffffffffffffffffffffffffffffffffffffff168773ffffffffffffffffffffffffffffffffffffffff167fddf252ad1be2c89b69c2b068fc378daa952ba7f163c4a11628f55a4df523b3ef8560405161301e9190613fec565b60405180910390a3505b600061303d83866133d490919063ffffffff16565b905061309181600260008973ffffffffffffffffffffffffffffffffffffffff1673ffffffffffffffffffffffffffffffffffffffff1681526020019081526020016000205461365590919063ffffffff16565b600260008873ffffffffffffffffffffffffffffffffffffffff1673ffffffffffffffffffffffffffffffffffffffff168152602001908152602001600020819055508573ffffffffffffffffffffffffffffffffffffffff168773ffffffffffffffffffffffffffffffffffffffff167fddf252ad1be2c89b69c2b068fc378daa952ba7f163c4a11628f55a4df523b3ef836040516131319190613fec565b60405180910390a3600193505050509392505050565b60008073ffffffffffffffffffffffffffffffffffffffff168373ffffffffffffffffffffffffffffffffffffffff1614156131b8576040517f08c379a00000000000000000000000000000000000000000000000000000000081526004016131af90613ecc565b60405180910390fd5b600082116131fb576040517f08c379a00000000000000000000000000000000000000000000000000000000081526004016131f290613f6c565b60405180910390fd5b61320483611841565b821115613246576040517f08c379a000000000000000000000000000000000000000000000000000000000815260040161323d90613f2c565b60405180910390fd5b6132cf826040518060400160405280601181526020017f42616c616e636520556e646572666c6f77000000000000000000000000000000815250600260008773ffffffffffffffffffffffffffffffffffffffff1673ffffffffffffffffffffffffffffffffffffffff16815260200190815260200160002054612c339092919063ffffffff16565b600260008573ffffffffffffffffffffffffffffffffffffffff1673ffffffffffffffffffffffffffffffffffffffff1681526020019081526020016000208190555061335e826040518060400160405280601081526020017f537570706c7920556e646572666c6f7700000000000000000000000000000000815250600154612c339092919063ffffffff16565b600181905550600073ffffffffffffffffffffffffffffffffffffffff168373ffffffffffffffffffffffffffffffffffffffff167fddf252ad1be2c89b69c2b068fc378daa952ba7f163c4a11628f55a4df523b3ef846040516133c29190613fec565b60405180910390a36001905092915050565b600061341683836040518060400160405280601e81526020017f536166654d6174683a207375627472616374696f6e206f766572666c6f770000815250612c33565b905092915050565b60008073ffffffffffffffffffffffffffffffffffffffff168373ffffffffffffffffffffffffffffffffffffffff16141561348f576040517f08c379a000000000000000000000000000000000000000000000000000000000815260040161348690613ecc565b60405180910390fd5b600082116134d2576040517f08c379a00000000000000000000000000000000000000000000000000000000081526004016134c990613f6c565b60405180910390fd5b61352482600260008673ffffffffffffffffffffffffffffffffffffffff1673ffffffffffffffffffffffffffffffffffffffff1681526020019081526020016000205461365590919063ffffffff16565b600260008573ffffffffffffffffffffffffffffffffffffffff1673ffffffffffffffffffffffffffffffffffffffff1681526020019081526020016000208190555061357c8260015461365590919063ffffffff16565b6001819055508273ffffffffffffffffffffffffffffffffffffffff16600073ffffffffffffffffffffffffffffffffffffffff167fddf252ad1be2c89b69c2b068fc378daa952ba7f163c4a11628f55a4df523b3ef846040516135e09190613fec565b60405180910390a36001905092915050565b60008083118290613639576040517f08c379a00000000000000000000000000000000000000000000000000000000081526004016136309190613d6a565b60405180910390fd5b506000838561364891906140ff565b9050809150509392505050565b600080828461366491906140a9565b9050838110156136a9576040517f08c379a00000000000000000000000000000000000000000000000000000000081526004016136a090613dec565b60405180910390fd5b8091505092915050565b6000813590506136c281614633565b92915050565b6000813590506136d78161464a565b92915050565b6000815190506136ec8161464a565b92915050565b60008135905061370181614661565b92915050565b60008151905061371681614661565b92915050565b60006020828403121561372e57600080fd5b600061373c848285016136b3565b91505092915050565b6000806040838503121561375857600080fd5b6000613766858286016136b3565b9250506020613777858286016136b3565b9150509250929050565b60008060006060848603121561379657600080fd5b60006137a4868287016136b3565b93505060206137b5868287016136b3565b92505060406137c6868287016136f2565b9150509250925092565b600080604083850312156137e357600080fd5b60006137f1858286016136b3565b9250506020613802858286016136c8565b9150509250929050565b6000806040838503121561381f57600080fd5b600061382d858286016136b3565b925050602061383e858286016136f2565b9150509250929050565b60006020828403121561385a57600080fd5b6000613868848285016136dd565b91505092915050565b60006020828403121561388357600080fd5b6000613891848285016136f2565b91505092915050565b6000602082840312156138ac57600080fd5b60006138ba84828501613707565b91505092915050565b6000806000606084860312156138d857600080fd5b60006138e6868287016136f2565b93505060206138f7868287016136f2565b9250506040613908868287016136f2565b9150509250925092565b61391b816141be565b82525050565b61392a816141d0565b82525050565b61393981614213565b82525050565b600061394a82614082565b6139548185614098565b9350613964818560208601614237565b61396d816142c8565b840191505092915050565b6000613985600e83614098565b9150613990826142d9565b602082019050919050565b60006139a8601183614098565b91506139b382614302565b602082019050919050565b60006139cb601383614098565b91506139d68261432b565b602082019050919050565b60006139ee601b83614098565b91506139f982614354565b602082019050919050565b6000613a11600a83614098565b9150613a1c8261437d565b602082019050919050565b6000613a34601283614098565b9150613a3f826143a6565b602082019050919050565b6000613a57601583614098565b9150613a62826143cf565b602082019050919050565b6000613a7a602183614098565b9150613a85826143f8565b604082019050919050565b6000613a9d601683614098565b9150613aa882614447565b602082019050919050565b6000613ac0601783614098565b9150613acb82614470565b602082019050919050565b6000613ae3600c83614098565b9150613aee82614499565b602082019050919050565b6000613b06601983614098565b9150613b11826144c2565b602082019050919050565b6000613b29600b83614098565b9150613b34826144eb565b602082019050919050565b6000613b4c601483614098565b9150613b5782614514565b602082019050919050565b6000613b6f601083614098565b9150613b7a8261453d565b602082019050919050565b6000613b92600b83614098565b9150613b9d82614566565b602082019050919050565b6000613bb560008361408d565b9150613bc08261458f565b600082019050919050565b6000613bd8602483614098565b9150613be382614592565b604082019050919050565b6000613bfb600e83614098565b9150613c06826145e1565b602082019050919050565b6000613c1e601583614098565b9150613c298261460a565b602082019050919050565b613c3d816141fc565b82525050565b613c4c81614206565b82525050565b6000613c5d82613ba8565b9150819050919050565b6000602082019050613c7c6000830184613912565b92915050565b6000606082019050613c976000830186613912565b613ca46020830185613912565b613cb16040830184613c34565b949350505050565b6000604082019050613cce6000830185613912565b613cdb6020830184613921565b9392505050565b6000604082019050613cf76000830185613912565b613d046020830184613c34565b9392505050565b6000602082019050613d206000830184613921565b92915050565b6000604082019050613d3b6000830185613921565b613d486020830184613921565b9392505050565b6000602082019050613d646000830184613930565b92915050565b60006020820190508181036000830152613d84818461393f565b905092915050565b60006020820190508181036000830152613da581613978565b9050919050565b60006020820190508181036000830152613dc58161399b565b9050919050565b60006020820190508181036000830152613de5816139be565b9050919050565b60006020820190508181036000830152613e05816139e1565b9050919050565b60006020820190508181036000830152613e2581613a04565b9050919050565b60006020820190508181036000830152613e4581613a27565b9050919050565b60006020820190508181036000830152613e6581613a4a565b9050919050565b60006020820190508181036000830152613e8581613a6d565b9050919050565b60006020820190508181036000830152613ea581613a90565b9050919050565b60006020820190508181036000830152613ec581613ab3565b9050919050565b60006020820190508181036000830152613ee581613ad6565b9050919050565b60006020820190508181036000830152613f0581613af9565b9050919050565b60006020820190508181036000830152613f2581613b1c565b9050919050565b60006020820190508181036000830152613f4581613b3f565b9050919050565b60006020820190508181036000830152613f6581613b62565b9050919050565b60006020820190508181036000830152613f8581613b85565b9050919050565b60006020820190508181036000830152613fa581613bcb565b9050919050565b60006020820190508181036000830152613fc581613bee565b9050919050565b60006020820190508181036000830152613fe581613c11565b9050919050565b60006020820190506140016000830184613c34565b92915050565b600060408201905061401c6000830185613c34565b6140296020830184613912565b9392505050565b60006060820190506140456000830186613c34565b6140526020830185613c34565b61405f6040830184613c34565b949350505050565b600060208201905061407c6000830184613c43565b92915050565b600081519050919050565b600081905092915050565b600082825260208201905092915050565b60006140b4826141fc565b91506140bf836141fc565b9250827fffffffffffffffffffffffffffffffffffffffffffffffffffffffffffffffff038211156140f4576140f361426a565b5b828201905092915050565b600061410a826141fc565b9150614115836141fc565b92508261412557614124614299565b5b828204905092915050565b600061413b826141fc565b9150614146836141fc565b9250817fffffffffffffffffffffffffffffffffffffffffffffffffffffffffffffffff048311821515161561417f5761417e61426a565b5b828202905092915050565b6000614195826141fc565b91506141a0836141fc565b9250828210156141b3576141b261426a565b5b828203905092915050565b60006141c9826141dc565b9050919050565b60008115159050919050565b600073ffffffffffffffffffffffffffffffffffffffff82169050919050565b6000819050919050565b600060ff82169050919050565b600061421e82614225565b9050919050565b6000614230826141dc565b9050919050565b60005b8381101561425557808201518184015260208101905061423a565b83811115614264576000848401525b50505050565b7f4e487b7100000000000000000000000000000000000000000000000000000000600052601160045260246000fd5b7f4e487b7100000000000000000000000000000000000000000000000000000000600052601260045260246000fd5b6000601f19601f8301169050919050565b7f416c726561647920416e20414d4d000000000000000000000000000000000000600082015250565b7f53656c6c2046656520546f6f2048696768000000000000000000000000000000600082015250565b7f43616c6c6572206973206e6f74206f776e657200000000000000000000000000600082015250565b7f536166654d6174683a206164646974696f6e206f766572666c6f770000000000600082015250565b7f4e6f7420416e20414d4d00000000000000000000000000000000000000000000600082015250565b7f4572726f72205472616e7366657246726f6d0000000000000000000000000000600082015250565b7f43616e6e6f742057697468647261772041616c746f0000000000000000000000600082015250565b7f536166654d6174683a206d756c7469706c69636174696f6e206f766572666c6f60008201527f7700000000000000000000000000000000000000000000000000000000000000602082015250565b7f416d6f756e7420457863656564732042616c616e636500000000000000000000600082015250565b7f4572726f72204f6e2041616c746f205472616e73666572000000000000000000600082015250565b7f5a65726f20416464726573730000000000000000000000000000000000000000600082015250565b7f4661696c757265204f6e20546f6b656e20576974686472617700000000000000600082015250565b7f5a65726f2053656e646572000000000000000000000000000000000000000000600082015250565b7f496e73756666696369656e742042616c616e6365000000000000000000000000600082015250565b7f4275792046656520546f6f204869676800000000000000000000000000000000600082015250565b7f5a65726f20416d6f756e74000000000000000000000000000000000000000000600082015250565b50565b7f416d6f756e7420457863656564732053656e646572732041616c746f2042616c60008201527f616e636500000000000000000000000000000000000000000000000000000000602082015250565b7f5a65726f20526563697069656e74000000000000000000000000000000000000600082015250565b7f5472616e736665722046656520546f6f20486967680000000000000000000000600082015250565b61463c816141be565b811461464757600080fd5b50565b614653816141d0565b811461465e57600080fd5b50565b61466a816141fc565b811461467557600080fd5b5056fea2646970667358221220f96e55beccfb28e25bb985efccf0f41a2672b80badae8aada64141506f17ffa964736f6c63430008040033",
  "linkReferences": {},
  "deployedLinkReferences": {}
}